:100000009AC10000C8C10000C6C10000C4C1000000
:10001000C2C10000C0C10000BEC10000BCC10000E0
:10002000BAC1000061C600005FC600005DC60000E6
:10003000B2C10000B0C10000AEC10000ACC1000000
:10004000AAC10000A8C10000A6C10000A4C1000010
:10005000A2C10000A0C100009EC10000D6C50000E2
:100060009AC10000D7C40000ACC4000094C10000D5
:1000700092C1000090C100008EC100008CC1000040
:100080008AC1000088C1000086C1000084C1000050
:1000900082C1000080C100007EC100007CC1000060
:1000A0007AC1000078C1000076C1000074C1000070
:1000B00072C1000070C100006EC100006CC1000080
:1000C0006AC1000068C1000066C1000064C1000090
:1000D00062C1000060C100005EC100005CC10000A0
:1000E0005AC100006F057205610565056905A9051E
:1000F00076057A058005840588058E0592059605A6
:10010000A9059C05A005A4056364696E6F707375ED
:1001100078585B0000002100240027002A002D00F1
:100120003000330001010000040107010A01000052
:100130000A0B02090C0D0E08070304010000000061
:1001400000000000000000000000000000000000AF
:10015000000000000000000000001211100000006C
:10016000000000000000000000000000000000008F
:1001700000000000434C4F53454400434F4E4E4552
:100180004354004950442C00525354002A49444ED1
:100190003F00627573790053454E44204F4B006C0D
:1001A000696E6B206973206E6F74003E002C0041F5
:1001B000542B43495053454E443D002C3300415489
:1001C0002B43575341503D220041542B43574D4F31
:1001D00044453D3300414C52454159004C696E6BDA
:1001E000656400222C005544500054435000415493
:1001F0002B43495053544152543D342C2200415416
:100200002B4349504D55583D310041544530004134
:100210005445310041542B43574D4F44453D310027
:100220007265616479006E6F206368616E67650056
:1002300041542B4349505345525645523D312C00B1
:100240004641494C002200222C220041542B4357A6
:100250004A41503D22004F4B004552524F52003010
:100260002E302E302E300041542B4349465352003D
:100270000A0000002200250028002B002E0031007B
:10028000340002010000050108010B0100002000FC
:100290002300260029002C002F003200000100005E
:1002A00003010601090105050505070508080808F9
:1002B000020202020A0A08080404040401010101FE
:1002C00001010101030303030303030304070707F9
:1002D0000C0C0C0C0C0C0C0C02020202060606069E
:1002E000060606060B0B0B0B0B0B0B0B010210206B
:1002F000200808102040102040800201020108045C
:1003000002010102040810204080804020100804EF
:100310000201800402018040201008040201080448
:10032000020101020408102040800102040810208C
:1003300040809A0C900C11241FBECFEFD1E2DEBF9B
:10034000CDBF00E00CBF12E0A0E0B2E0EEE1F3E2CE
:1003500000E00BBF02C007900D92A038B107D9F79B
:1003600024E0A0E8B2E001C01D92AF3FB207E1F780
:1003700011E0CAE9D1E000E006C021970109802F11
:10038000FE010E94EA0DC939D10780E00807A9F7EC
:10039000C3D70C947E1134CECF92DF92EF92FF92AE
:1003A0000F931F93CF93DF936C017A018B01C0E011
:1003B000D0E0CE15DF0589F0D8016D918D01D60111
:1003C000ED91FC910190F081E02DC6011995892BEA
:1003D00011F47E0102C02196ECCFC701DF91CF91CD
:1003E0001F910F91FF90EF90DF90CF900895FC0147
:1003F000538D448D252F30E0842F90E0821B930B8A
:10040000541710F0CF96089501970895FC01918D2F
:10041000828D981761F0828DDF01A80FB11D5D9666
:100420008C91928D9F5F9F73928F90E008958FEFD4
:100430009FEF0895FC01918D828D981731F0828D88
:10044000E80FF11D858D90E008958FEF9FEF0895DF
:10045000FC01918D228D892F90E0805C9F4F821B43
:1004600091098F739927089584ED92E0F1DF21E0DF
:10047000892B09F420E0822F0895FC01848DDF018F
:10048000A80FB11DA35ABF4F2C91848D90E0019607
:100490008F739927848FA689B7892C93A089B189F6
:1004A0008C9180648C93938D848D981306C0028800
:1004B000F389E02D80818F7D80830895EF92FF92F4
:1004C0000F931F93CF93DF93EC0181E0888F9B8D77
:1004D0008C8D981305C0E889F989808185FD23C03A
:1004E000F62E0B8D10E00F5F1F4F0F731127E02EBC
:1004F0008C8DE8120BC00FB607FCFACFE889F9899A
:10050000808185FFF5CFCE01B8DFF2CF8B8DFE0164
:10051000E80FF11DE35AFF4FF0820B8FEA89FB8948
:100520008081806207C0EE89FF896083E889F9894C
:1005300080818064808381E090E0DF91CF911F9182
:100540000F91FF90EF900895CF93DF93EC01888D8A
:100550008823C1F0EA89FB89808185FD05C0A889CF
:10056000B9898C9186FD0EC00FB607FCF5CF80814E
:1005700085FFF2CFA889B9898C9185FFEDCFCE0197
:100580007CDFE8CFDF91CF91089580E090E0892B68
:1005900019F06ADF811125C080E090E0892B41F0DD
:1005A00080E090E0892B21F00E94000081111CC0A6
:1005B00080E090E0892B41F080E090E0892B21F0F1
:1005C0000E940000811113C080E090E0892BA1F00F
:1005D00080E090E0892B81F00E94000081110AC028
:1005E00008950E940000D8CF0E940000E1CF0E9431
:1005F0000000EACF0C94000008952091CB023091C6
:10060000CC022817390771F49091C9028091CA026F
:10061000981741F0E091C902F0E0E058FD4F808169
:1006200090E008958FEF9FEF089508951F93CF9363
:10063000DF93DC015C962D913C915D97211531058E
:1006400039F481E090E013969C938E9312973DC00D
:100650005196ED91FC91529750969C915097892F0D
:1006600080951FB75E964C915E9741FB772770F996
:1006700041FD6095F8944081772311F0492B01C02A
:1006800048234083E9012197F1F748E0508160FF5A
:1006900002C0592B01C058235083E9012197F1F77B
:1006A0006695415099F7772321F0908189238083C3
:1006B00003C08081982B90831FBF5C968D919C9185
:1006C0005D970197F1F721E030E0C901DF91CF910B
:1006D0001F9108952091CB023091CC022817390741
:1006E00069F48091CA022091C90290E0805C9F4F1A
:1006F000821B910960E470E00C94B50D80E090E0FD
:1007000008952091CB023091CC0228173907B9F413
:100710009091C9028091CA02981789F0E091C902AC
:10072000F0E0E058FD4F80812091C90230E02F5F5A
:100730003F4F2F7333272093C90290E008958FEF26
:100740009FEF0895E091CB02F091CC02E817F907F2
:1007500069F4A389B4899C918589809589238C93B8
:100760001092CC021092CB0281E0089580E00895AF
:10077000089580E090E00895CF92DF92EF92FF928B
:100780000F931F93CF93DF93EC01F62E042FE82EE7
:10079000C82EDD2E1C2D1E198091710390917203BD
:1007A000DC01ED91FC910084F185E02D1995892BF8
:1007B00049F01F1538F416D3801721F0F601819304
:1007C0006F01E8CFC10FD11D1882812FDF91CF912A
:1007D0001F910F91FF90EF90DF90CF9008950E94AE
:1007E000060E6115710579F0FB0101900020E9F713
:1007F0003197AF01461B570BDC01ED91FC91028054
:10080000F381E02D199480E090E008950F931F93F9
:10081000CF93DF93EC01E5DF8C0164E272E0CE015F
:10082000E0DF800F911FDF91CF911F910F9108950D
:10083000D8CF8F929F92AF92BF92CF92DF92EF92DA
:10084000FF920F931F93CF93DF93CDB7DEB7A3979C
:100850000FB6F894DEBF0FBECDBF182F6AA37BA3DF
:1008600038D59EEDE92E93E0F92EF7010190002096
:10087000E9F7CF018F5D93404FE7481B50E06AA135
:100880007BA1C7010E940A0EF70101900020E9F741
:10089000CF018F5D9340082F3091770332FF02C064
:1008A00002E0080F60E070E08FEA91E054D380919D
:1008B000730390917403DC01ED91FC910190F08140
:1008C000E02D612F199560E070E08DEA91E043D34F
:1008D000E0907303F0907403202F30E040E050E08C
:1008E00019A26E01B1E2CB0ED11C8AE0882E912CA8
:1008F000A12CB12CCA01B901A50194010E94C80D17
:10090000605DF60162936F012115310541055105C6
:1009100089F7BF01C70165DF64E272E0C70161DFEB
:100920004FE951E06BEA71E088EE93E07BD28230D0
:1009300001F12091770380917303909174036EED20
:1009400073E022FF02C062DF01C072DF42E951E0C2
:1009500067E971E088E893E165D2813051F4109243
:10096000DE031433D1F480917603806180937603A3
:1009700014C0143331F4809176038F7E8093760314
:1009800008C0E12FEE0FFF0BE858FC4F80818E7FEF
:1009900080831092DE0380E001C081E0A3960FB651
:1009A000F894DEBF0FBECDBFDF91CF911F910F91A5
:1009B000FF90EF90DF90CF90BF90AF909F908F907F
:1009C00008951F920F920FB60F9211240BB60F923B
:1009D0002F933F934F935F936F937F938F939F9347
:1009E000AF93BF93EF93FF9384ED92E046DDFF91C9
:1009F000EF91BF91AF919F918F917F916F915F9197
:100A00004F913F912F910F900BBE0F900FBE0F9003
:100A10001F9018951F920F920FB60F9211240BB6CC
:100A20000F922F938F939F93EF93FF93E091E402A4
:100A3000F091E5028081E091EA02F091EB0282FD03
:100A400012C090818091ED028F5F8F732091EE0232
:100A5000821751F0E091ED02F0E0EC52FD4F958FDE
:100A60008093ED0201C08081FF91EF919F918F9162
:100A70002F910F900BBE0F900FBE0F901F901895E7
:100A8000362F90E0FC01E25DFE4F4491FC01E45101
:100A9000FD4F2491FC01EA55FD4F9491992309F4EF
:100AA0006BC0442309F455C050E0FA013197E2319C
:100AB000F10508F04EC08827EE58FF4F8F4F0C9479
:100AC000EA0D809180008F7707C0809180008F7D34
:100AD00003C080918000877F809380003AC084B5F6
:100AE0008F7702C084B58F7D84BD33C08091B00004
:100AF0008F7703C08091B0008F7D8093B00029C0B4
:100B0000809190008F7707C0809190008F7D03C007
:100B100080919000877F809390001BC08091A000FF
:100B20008F7707C08091A0008F7D03C08091A000C7
:100B3000877F8093A0000DC0809120018F7707C030
:100B4000809120018F7D03C080912001877F809359
:100B50002001E92FF0E0EE0FFF1FEE58FD4FA591A9
:100B6000B4918FB7F894EC91311103C020952E23E6
:100B700001C02E2B2C938FBF0895CF93DF9390E06D
:100B8000FC01E451FD4F2491FC01EA55FD4F849195
:100B9000882361F190E0880F991FFC01EC5EFE4F05
:100BA000C591D491FC01EE58FD4FA591B49161110E
:100BB00009C09FB7F8948881209582238883EC919F
:100BC0002E230BC0623061F49FB7F8943881822FD6
:100BD000809583238883EC912E2B2C939FBF06C096
:100BE0008FB7F894E8812E2B28838FBFDF91CF91A8
:100BF00008952FB7F8946091C5027091C602809154
:100C0000C7029091C8022FBF08951F920F920FB68E
:100C10000F9211242F933F938F939F93AF93BF9382
:100C20008091C5029091C602A091C702B091C802FE
:100C30003091C40223E0230F2D3720F40196A11D2B
:100C4000B11D05C026E8230F0296A11DB11D2093FA
:100C5000C4028093C5029093C602A093C702B093CA
:100C6000C8028091C0029091C102A091C202B091CD
:100C7000C3020196A11DB11D8093C0029093C102D1
:100C8000A093C202B093C302BF91AF919F918F9185
:100C90003F912F910F900FBE0F901F9018958F923C
:100CA0009F92AF92BF92CF92DF92EF92FF926C0130
:100CB000A0DF4B015C010D2C000CEE08FF0899DF52
:100CC000DC01CB0188199909AA09BB098C159D057E
:100CD000AE05BF05A0F3FF90EF90DF90CF90BF90DF
:100CE000AF909F908F9008951F920F920FB60F9222
:100CF00011240BB60F922F933F934F935F936F93F3
:100D00007F938F939F93AF93BF93EF93FF93E09164
:100D1000CB02F091CC02309709F451C0968DA68594
:100D2000B785858591FF04C09C91892329F447C02C
:100D30009C91892309F043C0A389B4899C9185893A
:100D4000809589238C93868997890197F1F7608D27
:100D5000718DA685B785558538E020E0CB010197D8
:100D6000F1F7822F90E095958795282F4C91452398
:100D700009F02068315091F7868D81FD2095809192
:100D8000CA0290E001968F7399273091C9023817F3
:100D900049F0A091CA02B0E0A058BD4F2C938093B7
:100DA000CA0203C0868D8160868F828D938D0197E4
:100DB000F1F7A389B4899C918589892B8C93FF9144
:100DC000EF91BF91AF919F918F917F916F915F91C3
:100DD0004F913F912F910F900BBE0F900FBE0F9030
:100DE0001F901895CF938091710390917203DC014D
:100DF000ED91FC910284F385E02D1995C82F809127
:100E0000760382FF0CC08091DE049091DF04DC0148
:100E1000ED91FC910190F081E02D6C2F19958C2FB4
:100E2000CF9108956F927F928F929F92AF92BF92CF
:100E3000CF92DF92EF92FF920F931F93CF93DF93A6
:100E4000CDB7DEB7A0970FB6F894DEBF0FBECDBF0B
:100E50004C018A0180E17E0121E1E20EF11CD70103
:100E6000E82F1D92EA95E9F79E012F5F3F4F690138
:100E7000D9011D928A95E9F76115710511F0C70135
:100E800065D60115110519F0B801C6015FD6F70145
:100E900001900020E9F731971E2F1E19F6010190ED
:100EA0000020E9F731970E2F0C19A3DE092C000C56
:100EB000AA08BB08860E971EA81EB91E612C712CAD
:100EC0008091710390917203DC01ED91FC9100849B
:100ED000F185E02D1995892BE9F084DFF701E70D05
:100EE000F11D9081891302C0739401C0712CF60129
:100EF000E60DF11D9081891302C0639401C0612C3D
:100F0000112311F0711689F00023D1F26012D8CFAD
:100F100082E00CC08AE090E0C2DE6BDE68157905E5
:100F20008A059B0568F280E001C081E0A0960FB6BB
:100F3000F894DEBF0FBECDBFDF91CF911F910F910F
:100F4000FF90EF90DF90CF90BF90AF909F908F90E9
:100F50007F906F900895EF92FF920F931F93CF931E
:100F6000DF93CDB7DEB760970FB6F894DEBF0FBE44
:100F7000CDBF7B018E010F5F1F4F20E1F801119261
:100F80002A95E9F7BC01C801E1D5B8018091730346
:100F9000909174034DDCF0E7EF16F2E0FF0641F4A8
:100FA00064E272E080917303909174031ADC0CC0C8
:100FB000E114F10449F0B701C801C8D5B801809126
:100FC00073039091740334DC60960FB6F894DEBF1F
:100FD0000FBECDBFDF91CF911F910F91FF90EF908A
:100FE0000895CF9360E772E087E692E0B4DF49E5C9
:100FF00052E06FE572E08EE591E014DFC82F40E02B
:1010000050E066E572E08AE090E00CDF81E0C1111B
:1010100080E0CF91089560E070E08EEE91E09BDF7C
:101020008091770360E070E083FF03C08AEE91E077
:1010300002C086EE91E08FDF60E070E087E492E02E
:101040008ADF68E773E08091730390917403F0DBAB
:1010500060E070E083EE91E07EDF68E873E080910D
:10106000730390917403D2DB45ED51E06CED71E0B8
:1010700080E197E2D7DE91E0811101C090E080919C
:10108000760390FB84F98093760391111092DD032F
:10109000892F0895CF93DF9360E070E08BE492E0B6
:1010A0005ADFC1E7D3E06EE873E08A819B81C0DB41
:1010B00060E070E087E492E04EDF6EE973E08A81E1
:1010C0009B81B6DB60E772E085E492E044DF40E4B8
:1010D00052E066E572E088E99AE3A4DEDF91CF9101
:1010E00080CF60E070E080E392E035DF61ED73E097
:1010F000809173039091740389DB46E252E066E5C8
:1011000072E080ED97E08EDE91E0811101C090E009
:101110008091770390FB81F980937703892F08955D
:10112000CF931092DE0310925E04809176038F7647
:101130008F7B809376031092DD03C3E040E050E0A4
:101140006FE572E08AE090E06DDE60E0809175030B
:1011500097DC84EF91E0A3DD61E08091750390DC82
:1011600040E050E060E272E088EB9BE05BDE8130C3
:1011700021F0C15019F790E039C060E772E084E1D6
:1011800092E0E9DE46E252E066E572E088EE93E046
:1011900049DE882381F38091760360E772E081FF66
:1011A00003C08FE092E002C08AE092E0D4DE46E223
:1011B00052E066E572E088EE93E034DE8823D9F2EF
:1011C00060E772E08EEF91E0C6DE46E252E066E54F
:1011D00072E088EB9BE026DE91E0811101C090E097
:1011E0008091760390FB80F980937603892FCF91CD
:1011F0000895CF9395DFC82F811102C0C0E066C06B
:101200008091760386FD05C08091760387FF50C0EC
:101210004BC060E772E089EC91E09DDE46E252E06F
:1012200066E572E080ED97E0FDDD882339F360E04C
:1012300070E08EEB91E08FDE6EEA73E080917303D5
:1012400090917403F5DA60E070E087E492E083DE69
:101250006EEB73E08091730390917403E9DA60E0C0
:1012600070E083EE91E077DE6EEC73E080917303C3
:1012700090917403DDDA60E772E08BEB91E06BDE56
:1012800049E552E066E572E088E893E1CBDD91E064
:10129000813009F090E08091770390FB80F9809392
:1012A00077039111B1CFAACF1CDF882309F4A6CF11
:1012B0008091760385FF04C0EDDE882309F49ECF7C
:1012C0008091760383FF02C0CF91A5CE8C2FCF9162
:1012D00008952091DD032330D0F49091760393FF9D
:1012E00018C094FB882780F994FD15C02F5F2093C8
:1012F000DD0395FF0DC075DE81110AC0CBDE8111C3
:1013000007C080ED97E0CBDC6CDE811101C071CFAE
:1013100082CE81E008950895CF93DF93CDB7DEB7F5
:10132000E2970FB6F894DEBF0FBECDBF789484B5B8
:10133000826084BD84B5816084BD85B5826085BDD1
:1013400085B5816085BD80916E00816080936E005F
:101350001092810080918100826080938100809151
:101360008100816080938100809180008160809302
:1013700080008091B10084608093B1008091B000C2
:1013800081608093B0008091910082608093910091
:1013900080919100816080939100809190008160A4
:1013A000809390008091A10082608093A100809141
:1013B000A10081608093A1008091A0008160809352
:1013C000A000809121018260809321018091210100
:1013D00081608093210180912001816080932001B0
:1013E00080917A00846080937A0080917A00826094
:1013F00080937A0080917A00816080937A00809156
:101400007A00806880937A001092C1001092FB04E9
:101410001092FA041092F9041092F8041092F70452
:101420001092F6048DE991E09093FD048093FC0402
:101430008091EC0496EF980F943048F02EEC280F32
:10144000243028F022EC280F283008F06EC02DEB55
:1014500030E03093F7042093F6042BE931E0309329
:10146000F9042093F8042CE231E03093FB0420933C
:10147000FA04943060F02EEC280F243040F022EC77
:10148000280F283008F444C2A0E0B0E043C2A8E628
:10149000B0E0E8E6F0E02081943018F08E53883018
:1014A00010F081E001C084E0822B8C938091EC04E9
:1014B00096EF980F943058F02EEC280F243038F027
:1014C00022EC280F283030F020E030E005C02BE679
:1014D00030E002C02DE630E03093F4042093F304B2
:1014E000943010F49AEF0BC0823381F0833381F093
:1014F000843381F092EC980F983070F492EC980F4E
:1015000081E001C0880F9A95EAF707C088E005C01E
:1015100084E003C082E001C081E08093F504809103
:10152000FC049091FD040197F1F78091FA049091E9
:10153000FB04892B19F18091CB029091CC0224E01D
:10154000803E9207D9F0009709F0FCD88091FE0404
:101550008E7F8093FE041092CA021092C90280EE20
:1015600094E09093CC028093CB02E091F304F0914D
:10157000F40490818091F504892B8083E091E4024A
:10158000F091E50282E08083E091E002F091E102D7
:101590001082E091E202F091E30280E180831092F8
:1015A000EC02E091E802F091E90286E08083E091AC
:1015B000E602F091E702808180618083E091E6029B
:1015C000F091E702808188608083E091E602F091EB
:1015D000E702808180688083E091E602F091E70273
:1015E00080818F7D808367E272E084ED92E00ED986
:1015F00067E272E080EE94E009D980917703886019
:101600008B7F809377038CDD8093D302882309F14D
:1016100040E150E065E372E08EE893E00BD340E1F7
:1016200050E06EE372E08EE993E004D3809176039C
:101630008062809376032EDD46E050E06BE472E03A
:1016400081ED93E0F7D280917603806880937603F2
:1016500048DD6E0131E2C30ED11C7E0181E1E80E4E
:10166000F11C8E010F5F1F4F27ED822E23E0922E7B
:101670003EE5632E34E0732E8091D302882309F473
:101680007FC027DE80E1D601E82F1D92EA95E9F7B9
:10169000D701E82F1D92EA95E9F7D8011D928A95A6
:1016A000E9F76BE771E0C60151D260E272E0C70171
:1016B0004DD264E771E0C80149D2F60101900020E3
:1016C000E9F731972E2F2C1929ABF7010190002053
:1016D000E9F731973E2F3E193AABF801019000200F
:1016E000E9F731973E2E301A9DE2292E412C512CDC
:1016F000A12CB12C8091710390917203DC01ED91CA
:10170000FC910084F185E02D1995892BA9F16ADB04
:10171000803281F38B3281F1B11001C0282EB39455
:10172000F601EA0DF11D9081891302C0A39401C056
:10173000A12CF701E50DF11D9081891302C053948E
:1017400001C0512CF801E40DF11D9081891302C0F4
:10175000439401C0412C29A9222319F0A21609F4AF
:10176000AFC03AA9332311F0531629F0332011F2F8
:101770004310C0CFB8C03DDD9092D2028092D1021A
:10178000A12CB12C8DE2282EE091D102F091D20251
:10179000EA0DFB1D818180FF88C09BDDF80120E1FF
:1017A00011922A95E9F710925E048091CD028E7F06
:1017B0008093CD022092CE027092D0026092CF022E
:1017C00040E252E063E871E08AE090E02BDB823097
:1017D00011F40FDD34C0813091F504DB382E34E391
:1017E000831305C080917603806180937603FADAD3
:1017F0004AE36FE0C8010E94BC03F4DAC80180D15B
:101800009C0133272F37310514F4682F01C06FE78F
:1018100040E08EE594E00E94BC038091CD0281609F
:101820008093CD023092CE027092D0026092CF02AD
:1018300040E050E066E572E08AE090E0F3DA209163
:10184000CD023090CE028091CF029091D00220FF45
:101850002CC0FF92EF921F930F93A0E5B2E0BF93CD
:10186000AF939F938F93F5D16CE871E0C80165D178
:101870000FB6F894DEBF0FBECDBF892B19F468E513
:1018800072E010C068E871E0C80157D1892B41F4BB
:101890006CE672E0832D0E9419040C94000005C0D0
:1018A0006CE772E0832D0E94190432E0A30EB11C94
:1018B00086E0A816B10409F067CF0E94C502DCCE0D
:1018C000E22DEE0FFF0BE858FC4F80818160808392
:1018D0009092D2028092D10294E3291251CF80914A
:1018E0007603806112C0E22DEE0FFF0BE858FC4F2B
:1018F00080818E7F80839092D2028092D102A4E375
:101900002A123ECF809176038F7E8093760338CF64
:10191000A8E6B0E0283008F4BCCDE0E0F0E0BBCDB4
:1019200086E192E09093E1048093E00480EE94E0FD
:101930000C94A2031092D7021092D60288EE93E084
:10194000A0E0B0E08093D8029093D902A093DA028D
:10195000B093DB0224E032E03093D5022093D4022E
:1019600025EC30E03093E1022093E00224EC30E0FB
:101970003093E3022093E20220EC30E03093E50262
:101980002093E40221EC30E03093E7022093E6025A
:1019900022EC30E03093E9022093E80226EC30E0BC
:1019A0003093EB022093EA021092ED021092EE02C5
:1019B0001092EF021092F0021092E3041092E204EF
:1019C0008093E4049093E504A093E604B093E704C5
:1019D00086E192E09093E1048093E0041092F70492
:1019E0001092F6041092F9041092F8041092FB047D
:1019F0001092FA041092FD041092FC046091FE040F
:101A00006E7F6D7F6093FE046695617081E068274C
:101A100086E036D861E086E0B0D8E2EFF2E0E4910B
:101A2000E093F004ECEAF2E0E491F0E0EE0FFF1F47
:101A3000EE58FD4F859194919093F2048093F104B8
:101A400060E084E09AD88091FE0481FD03C061E0EB
:101A500084E016D884E08093EC04E0EFF2E0E491B7
:101A6000E093ED04EAEAF2E0E491F0E0EE0FFF1F0C
:101A7000E457FD4F859194919093EF048093EE0489
:101A800084ED92E0909372038093710390937403BA
:101A90008093730385E08093750361E06ED860E006
:101AA000809175030E94400580917703886084606F
:101AB000809377038091760320EE34E03093DF0447
:101AC0002093DE048671846082608093760380E3D5
:101AD0008093D7038091D8038E7F8093D80381E3CE
:101AE0008093D9038091DA038E7F8093DA0382E3B7
:101AF0008093DB038091DC038E7F8093DC03089569
:101B0000FC0188279927E89421912032E9F32930B4
:101B100010F02E30C8F32B3239F02D3231F46894A6
:101B200003C01BD0820F911D219120532A30C8F38E
:101B30001EF4909581959F4F0895FB01DC018D91D6
:101B4000059080190110D9F3990B0895FB01DC0170
:101B500005900D920020E1F708957AE0979F902D6F
:101B6000879F802D910D1124089597FB072E16F461
:101B7000009406D077FD08D035D007FC05D03EF4A0
:101B8000909581959F4F0895709561957F4F089529
:101B9000A1E21A2EAA1BBB1BFD010DC0AA1FBB1F71
:101BA000EE1FFF1FA217B307E407F50720F0A21BE3
:101BB000B30BE40BF50B661F771F881F991F1A9450
:101BC00069F760957095809590959B01AC01BD017A
:101BD000CF010895EE0FFF1F881F8BBF0790F6916E
:101BE000E02D1994AA1BBB1B51E107C0AA1FBB1F04
:101BF000A617B70710F0A61BB70B881F991F5A9599
:101C0000A9F780959095BC01CD01089581E090E001
:101C1000F89474C3FB01DC010D900020E9F71197E3
:101C20004150504028F0019000200D92C9F70895CE
:101C30001C920895FB01DC014150504048F0019096
:101C40000D920020C9F701C01D9241505040E0F7AD
:101C50000895CF93DF93CDB7DEB72E970FB6F894E4
:101C6000DEBF0FBECDBF85E08C838C899D899A83B2
:101C70008983AE01485E5F4F6E897F89CE010196F0
:101C8000B0D12E960FB6F894DEBF0FBECDBFDF9158
:101C9000CF91089520FD09C0FC0123FD05C022FF5E
:101CA00002C07383628351834083089544FD10C052
:101CB00046FD10C0DB01FC01AA0FBB1FEE1FFF1F7A
:101CC0001094D1F76A0F7B1F8E1F9F1F31E003C056
:101CD00033E001C034E0660F771F881F991F315031
:101CE000D1F7620F711D811D911D08950F931F93F0
:101CF000CF93DF938C01C801A7D2EC0197FD06C0FA
:101D000090D2892BC1F7B801CE01DCD2CE01DF9190
:101D1000CF911F910F9108958F929F92AF92BF9292
:101D2000CF92DF92EF92FF920F931F93CF93DF93A7
:101D30001F92CDB7DEB78C01C62E7A01298384D2DB
:101D4000AC01552729814B32510521F04D32510507
:101D500061F42068CA94C11002C080E06FC0C8015D
:101D6000298372D2298197FDF8CF322F3D7FD32E60
:101D7000322F307339F5803329F5BB24BA94BC0C6B
:101D800009F449C0C80129835FD2298197FD43C066
:101D9000382F3F7D383561F48D2D8264D82ECA945A
:101DA000CA94CC20C1F1C8014FD297FF0BC033C0F9
:101DB00026FF04C02D2D2260D22E03C03D2D32619E
:101DC000D32ECB2C812C912C540120ED280F2830C0
:101DD00078F0D4FE03C0B80175D21AC02A3040F0A2
:101DE000D6FEF9CF2F7D3FEE320F3630A0F72750C9
:101DF0004D2DC501B4015ADF4B015C018D2D826070
:101E0000D82ECA94CC2051F0C8011ED297FFDDCF46
:101E1000D1FC04C0A2CF812C912C5401D7FE08C064
:101E2000B094A09490948094811C911CA11CB11C2E
:101E30002D2DB501A401C7012DDF81E00F90DF91A9
:101E4000CF911F910F91FF90EF90DF90CF90BF90B7
:101E5000AF909F908F9008956F927F928F929F92F4
:101E6000AF92BF92CF92DF92EF92FF920F931F93A8
:101E7000CF93DF93CDB7DEB7A1970FB6F894DEBF4F
:101E80000FBECDBF5C017A01CE0101966C0180E2EC
:101E9000F60111928A95E9F7F501838040E050E060
:101EA000912C712C70E0A1E0B0E0F90183FC8591E8
:101EB00083FE81918F01982F9F01811103C080E0E3
:101EC00090E07AC08E3519F44115510549F1E72F9C
:101ED000F0E0E417F5073CF48D3559F18D3219F433
:101EE000772001F103C0711001C0982E892F8695CB
:101EF000869586958601080F111D892F87703D01F3
:101F000001C0660C8A95EAF7F801808186298083F2
:101F1000991559F0991510F49F5FE8CF9150E6CFCD
:101F200071E004C07724739401C0712C4F5F5F4F40
:101F3000BCCF772019F08E8180628E83711103C02F
:101F40009924939416C0F6019E012F5D3F4F808126
:101F500080958193E217F307D1F7F2CFE114F104F2
:101F600029F0F7018083C70101967C016150912C13
:101F7000E9F0C50169A368D169A197FD15C0282FB3
:101F8000269526952695F601E20FF11D208130E079
:101F9000AC014770552702C0359527954A95E2F761
:101FA00020FDDCCFB5018ED1911089CFE114F10471
:101FB00011F0F7011082C801A1960FB6F894DEBFA8
:101FC0000FBECDBFDF91CF911F910F91FF90EF908A
:101FD000DF90CF90BF90AF909F908F907F906F9049
:101FE00008954F925F927F928F929F92AF92BF928D
:101FF000CF92DF92EF92FF920F931F93CF93DF93D5
:102000001F92CDB7DEB76C012B015A01FC0117827C
:102010001682712CF601F380F201F3FC8591F3FE38
:102020008191382F2F01882309F4E5C090E039838E
:10203000F8D03981892B19F0C60158DEEBCF353243
:1020400041F4F201F3FC3591F3FE31912F01353269
:1020500059F4C6013983F8D0398197FDCAC03817C1
:10206000C9F2B6012FD1C7C03A3239F4F3FC359129
:10207000F3FE31912F0151E001C050E0420110E028
:1020800020ED230F2A3088F45260612F70E080E049
:1020900090E040E259830ADE162FF401F3FC3591FB
:1020A000F3FE31914F015981EBCF052F232F2401EE
:1020B00051FF03C0111102C09EC01FEF383619F046
:1020C0003C3659F011C0F401F3FC2591F3FE219147
:1020D0002F01283649F4052F08600460F201F3FC53
:1020E0002591F3FE21912F01222309F484C0622F50
:1020F00070E088E091E029839CD02981892B09F444
:102100007AC000FD07C0F501E080F180C5010296AC
:102110005C0102C0E12CF12C2E3649F4F601468117
:10212000578160E070E0202FC701B4DD73CF233604
:1021300089F401FF11E0C60187D097FD5AC0E11470
:10214000F10429F0F7018083C70101967C01115049
:1021500091F74BC02B3551F49201A701612FC601B5
:102160007BDE2C01892B09F040C03AC0C6012983CF
:10217000BDDD298197FD3DC02F3641F128F424367D
:1021800019F1293631F124C0233769F02537E1F000
:102190001FC0E114F10429F0F7018082C701019604
:1021A0007C01115059F0C6014FD04C0197FD06C07B
:1021B00038D0892B71F3B601C40184D0E114F10445
:1021C000A1F0F701108211C0006203C0006101C0DC
:1021D0000064202FA701612FC6019EDD811105C07B
:1021E000F6018381807329F406C000FD13CF739438
:1021F00011CF772019F0872D90E002C08FEF9FEF6D
:102200000F90DF91CF911F910F91FF90EF90DF9092
:10221000CF90BF90AF909F908F907F905F904F90A6
:102220000895911168C0803219F089508550D0F717
:102230000895FC010590061621F00020D9F7C00191
:1022400008953197CF010895CF93DF93EC012B814F
:1022500020FF33C026FF0AC02F7B2B838E819F81F6
:1022600001969F838E838A8190E029C022FF0FC050
:10227000E881F9818081082E000C990B009719F4F0
:1022800020622B831AC03196F983E8830EC0EA8559
:10229000FB85199597FF09C02B81019611F080E20B
:1022A00001C080E1822B8B8308C02E813F812F5F8C
:1022B0003F4F3F832E83992702C08FEF9FEFDF911F
:1022C000CF910895FB01238120FF12C026FD10C08D
:1022D0008F3F3FEF930761F082832F7D206423833C
:1022E0002681378121503109378326839927089524
:1022F0008FEF9FEF089599278827089511E0CAE985
:10230000D1E000E005C0802FFE0164DC2196011DB4
:0E231000CB39D10780E00807B1F7F894FFCF72
:10231E00000000005E02CC01F701A40228020602B2
:10232E001A02000000001603CC01B90315036A035C
:10233E008103FD020D0A005374617274696E672089
:10234E007769666900596F75725353494400596F26
:10235E00757250617373776F72640032313231006F
:10236E002531357320256400455350383236367783
:10237E00696669204578616D706C650053595354D8
:10238E00454D2052455345542E2E2E004552520097
:020000023000CC
:10E000000D9489F10D94B2F10D94B2F10D94B2F129
:10E010000D94B2F10D94B2F10D94B2F10D94B2F1F0
:10E020000D94B2F10D94B2F10D94B2F10D94B2F1E0
:10E030000D94B2F10D94B2F10D94B2F10D94B2F1D0
:10E040000D94B2F10D94B2F10D94B2F10D94B2F1C0
:10E050000D94B2F10D94B2F10D94B2F10D94B2F1B0
:10E060000D94B2F10D94B2F10D94B2F10D94B2F1A0
:10E070000D94B2F10D94B2F10D94B2F10D94B2F190
:10E080000D94B2F10D94B2F10D94B2F10D94B2F180
:10E090000D94B2F10D94B2F10D94B2F10D94B2F170
:10E0A0000D94B2F10D94B2F10D94B2F10D94B2F160
:10E0B0000D94B2F10D94B2F10D94B2F10D94B2F150
:10E0C0000D94B2F10D94B2F10D94B2F10D94B2F140
:10E0D0000D94B2F10D94B2F10D94B2F10D94B2F130
:10E0E0000D94B2F141546D656761323536300041AF
:10E0F000726475696E6F206578706C6F72657220DE
:10E1000073746B3530305632206279204D4C530099
:10E11000426F6F746C6F616465723E004875683F52
:10E1200000436F6D70696C6564206F6E203D200048
:10E130004350552054797065202020203D20005FF9
:10E140005F4156525F415243485F5F3D2000415658
:10E1500052204C696243205665723D20004743437C
:10E160002056657273696F6E203D20004350552024
:10E1700049442020202020203D20004C6F7720663D
:10E18000757365202020203D20004869676820665F
:10E190007573652020203D200045787420667573D6
:10E1A00065202020203D20004C6F636B2066757336
:10E1B000652020203D20004D617220203720323024
:10E1C000313300312E362E3800342E332E350056A2
:10E1D00023202020414444522020206F7020636F70
:10E1E00064652020202020696E73747275637469E1
:10E1F0006F6E2061646472202020496E74657272B3
:10E20000757074006E6F20766563746F7200726A49
:10E210006D702020006A6D70200057686174207056
:10E220006F72743A00506F7274206E6F7420737541
:10E2300070706F72746564004D7573742062652030
:10E2400061206C6574746572002000577269747483
:10E25000696E672045450052656164696E672045B7
:10E26000450045452065727220636E743D00504F35
:10E27000525400303D5A65726F2061646472003FF1
:10E280003D43505520737461747300403D454550C3
:10E29000524F4D207465737400423D426C696E6B41
:10E2A000204C454400453D44756D70204545505215
:10E2B0004F4D00463D44756D7020464C415348001B
:10E2C000483D48656C70004C3D4C69737420492F83
:10E2D0004F20506F72747300513D51756974005234
:10E2E0003D44756D702052414D00563D73686F7707
:10E2F00020696E7465727275707420566563746FF0
:10E30000727300593D506F727420626C696E6B00BD
:10E310002A0011241FBECFEFD1E2DEBFCDBF01E046
:10E320000CBF12E0A0E0B2E0EEE1FDEF03E00BBFB6
:10E3300002C007900D92A030B107D9F712E0A0E01B
:10E34000B2E001C01D92AE30B107E1F70F9460F367
:10E350000D948DFE01E20EBF0FEF0DBF11241FBE05
:10E360000D9460F30D9400F020E030E040ED57E0B4
:10E3700005C0FA013197F1F72F5F3F4F2817390792
:10E38000C0F308959C01260F311DC901A0E0B0E043
:10E390002F5F3F4FABBFFC018791882361F08093D3
:10E3A000C6008091C00086FFFCCF8091C0008064D1
:10E3B0008093C000EACF08958DE08093C6008091DD
:10E3C000C00086FFFCCF8091C00080648093C000B5
:10E3D0008AE08093C6008091C00086FFFCCF8091C8
:10E3E000C00080648093C00008950F94C2F10F9420
:10E3F000DCF10895FC019081992359F09093C600B7
:10E400008091C00086FFFCCF8091C0008064809323
:10E41000C0003196992379F70895282F982F929567
:10E420009F70892F805D8A3308F0895F8093C600D2
:10E430008091C00086FFFCCF8091C00080648093F3
:10E44000C000822F8F70982F905D9A3308F0995FEB
:10E450009093C6008091C00086FFFCCF8091C000E1
:10E4600080648093C00008959C01FB01853691056E
:10E470001CF46330710594F0C90164E670E00F94F8
:10E480002EFE605D7F4F6093C6008091C00086FFC6
:10E49000FCCF8091C00080648093C0002B30310598
:10E4A00014F43297B4F0C90164E670E00F942EFEC4
:10E4B0006AE070E00F942EFE605D7F4F6093C600AF
:10E4C0008091C00086FFFCCF8091C0008064809363
:10E4D000C000C9016AE070E00F942EFEC0968093E0
:10E4E000C6008091C00086FFFCCF8091C000806490
:10E4F0008093C00008951F93182F8EE692EE60E07F
:10E500000F94C2F11093C6008091C00086FFFCCF2B
:10E510008091C00080648093C0000F94DCF11F9153
:10E5200008952F923F924F925F926F927F928F92B7
:10E530009F92AF92BF92CF92DF92EF92FF920F9392
:10E540001F93DF93CF93CDB7DEB762970FB6F894E2
:10E55000DEBF0FBECDBF382E622ECA01DB015C01CB
:10E560006D01772420E2222E2E010894411C511CBB
:10E570008BC081E0A81680E0B80681E0C80680E084
:10E58000D80628F0C601AA27BB270F940DF2BB2797
:10E59000AD2D9C2D8B2D0F940DF28A2D0F940DF225
:10E5A0002092C6008091C00086FFFCCF8091C00001
:10E5B00080648093C0009DE29093C6008091C0006B
:10E5C00086FFFCCF8091C00080648093C0002092C1
:10E5D000C6008091C00086FFFCCF8091C00080649F
:10E5E0008093C00019828601750188249924A1E0D6
:10E5F0003A1651F03A1620F0B2E03B1661F409C029
:10E600000BBFF701779007C0C7010F9477FE782EF4
:10E6100002C0F7017080872D0F940DF22092C60082
:10E620008091C00086FFFCCF8091C0008064809301
:10E63000C000872D8052F401EF70F0708F3520F408
:10E64000E40DF51D708204C0E40DF51D8EE280839B
:10E650000894E11CF11C011D111D0894811C911CE2
:10E6600090E18916910409F0C2CF80E190E0A0E02A
:10E67000B0E0A80EB91ECA1EDB1E198AC2010F9493
:10E68000FAF10F94DCF16A94662009F072CF629679
:10E690000FB6F894DEBF0FBECDBFCF91DF911F91B3
:10E6A0000F91FF90EF90DF90CF90BF90AF909F9031
:10E6B0008F907F906F905F904F903F902F90089534
:10E6C0002F923F924F925F926F927F928F929F9282
:10E6D000AF92BF92CF92DF92EF92FF920F931F9370
:10E6E000DF93CF93CDB7DEB7CD53D1400FB6F894BB
:10E6F000DEBF0FBECDBF01E20EBF0FEF0DBF94B75F
:10E70000F894A89514BE80916000886180936000A1
:10E7100010926000789493FF05C0E0910002F091A0
:10E7200001021995279A2F9A8091C00082608093E8
:10E73000C00080E18093C40088E18093C1000000A4
:10E74000EE24FF24870144E0A42EB12CCC24DD2448
:10E7500024C0C5010197F1F70894E11CF11C011DCB
:10E76000111D21E2E2162EE4F20620E0020720E06D
:10E77000120718F031E0C32ED12CC801B70127ECE5
:10E780003BE140E050E00F9441FE611571058105C9
:10E79000910519F485B1805885B98091C00087FD35
:10E7A00003C0C114D104A9F2A6014F5F5F4FC25E3E
:10E7B000DE4F59834883CE51D140C25EDE4F8881FF
:10E7C0009981CE51D140019711F00D9410FEC05D9A
:10E7D000DE4F19821882C053D14060E0C15DDE4F28
:10E7E0001882CF52D14088249924C35DDE4F19820C
:10E7F0001882CD52D140C05EDE4F188219821A8233
:10E800001B82C052D140CE5CDE4F188219821A8220
:10E810001B82C253D140EE24FF2487010BBFF701B6
:10E8200007911691C45CDE4F19830883CC53D14005
:10E830000D940BFEC25EDE4F28813981CE51D1404E
:10E840002130310509F52091C600C25EDE4F1982E4
:10E850001882CE51D14022C02F5F3F4F4F4F5F4FA4
:10E86000213082E138078AE7480780E0580780F0C6
:10E87000C45CDE4FE881F981CC53D140EF5FFF4F9C
:10E8800019F0EE27FF27099420E030E040E050E047
:10E890008091C00087FFE0CF2091C600C35DDE4FAE
:10E8A00048815981CD52D1404F5F5F4FC35DDE4FEC
:10E8B00059834883CD52D140213209F063C64A3092
:10E8C000510508F05FC60894811C911C53E0851621
:10E8D000910409F059C600E010E018C081E280936D
:10E8E000C6008091C00086FFFCCF8091C00080648C
:10E8F0008093C0002F5F3F4F2931310579F70F9486
:10E90000DCF10F5F1F4F0530110519F020E030E0FA
:10E91000E5CF10920A0210920B0210920C02109294
:10E920000D02109206021092070210920802109235
:10E930000902109202021092030210920402109235
:10E9400005028FEE90EE60E00F94F5F180E191EE1C
:10E9500060E00F94C2F18091C00087FFFCCF9091DE
:10E96000C600903608F09F759032B8F09093C600BC
:10E970008091C00086FFFCCF8091C00080648093AE
:10E98000C000A0E2A093C6008091C00086FFFCCF2B
:10E990008091C00080648093C000983409F4D7C18E
:10E9A0009934B8F4923409F459C1933458F490333B
:10E9B00019F1903308F4E3C59F33A1F1903409F0C5
:10E9C000DEC5BDC0953409F470C1963409F0D7C5D1
:10E9D00098C1923509F42BC2933538F49C3409F46C
:10E9E000F5C1913509F0CBC518C2963509F445C279
:10E9F000993509F0C4C567C483E792EE62E00F94CD
:10EA0000F5F110920602109207021092080210927D
:10EA1000090210920A0210920B0210920C0210923C
:10EA20000D0213C18FE792EE62E00F94F5F18FEEC5
:10EA300090EE60E00F94F5F181E291EE60E00F94CA
:10EA4000C2F187EB91EE60E00F94F5F180E391EE77
:10EA500060E00F94C2F184EE90EE60E00F94F5F167
:10EA60008FE391EE60E00F94C2F186E090E061E008
:10EA700070E00F9434F20F94DCF18DE591EE60E0DC
:10EA80000F94C2F189EC91EE60E00F94F5F18EE401
:10EA900091EE60E00F94C2F183EC91EE60E00F9490
:10EAA000F5F18CE691EE60E00F94C2F18EE10F94E7
:10EAB0000DF288E90F940DF281E00F940DF20F949E
:10EAC000DCF18BE791EE60E00F94C2F119E0E0E039
:10EAD000F0E010935700E4918E2F0F940DF20F94F5
:10EAE000DCF18AE891EE60E00F94C2F1E3E0F0E03F
:10EAF00010935700E4918E2F0F940DF20F94DCF1D8
:10EB000089E991EE60E00F94C2F1E2E0F0E0109349
:10EB10005700E4918E2F0F940DF20F94DCF188EAE8
:10EB200091EE60E00F94C2F1E1E0F0E01093570045
:10EB30001491812F0F940DF20F94DCF107CF8BE825
:10EB400092EE62E00F94F5F18BE492EE60E00F94A8
:10EB5000F5F10F94DCF100E010E019C0C8016F2D51
:10EB60000F947FFEFF2031F489E492EE60E00F9471
:10EB7000C2F10BC0F092C6008091C00086FFFCCFAE
:10EB80008091C00080648093C0000F5F1F4FC80158
:10EB900081519F41A0E0B0E0ABBFFC01F790BAE229
:10EBA000FB1621F0E2E000301E07C1F60F94DCF105
:10EBB0000F94DCF187E592EE60E00F94F5F10F948D
:10EBC000DCF1CC24DD2400E010E01EC0C8010F946D
:10EBD00077FEF82E882331F489E492EE60E00F94FA
:10EBE000C2F10BC08093C6008091C00086FFFCCFAD
:10EBF0008091C00080648093C000FE1419F00894D6
:10EC0000C11CD11C0F5F1F4FC80181519F41A0E063
:10EC1000B0E0ABBFFC01E790FAE2EF1621F022E092
:10EC20000030120799F60F94DCF10F94DCF182E6C4
:10EC300092EE60E00F94C2F1C60161E070E00F94C3
:10EC400034F20F94DCF10F94DCF110920202109276
:10EC50000302109204021092050278CE89E992EE26
:10EC600062E00F94F5F1279A2F9A16C02F9880E052
:10EC700090E0E0EDF7E03197F1F7019684369105E9
:10EC8000C1F72F9A80E090E0E0EDF7E03197F1F7DF
:10EC9000019684369105C1F78091C00087FFE6CFC9
:10ECA0008091C00087FFFCCF64C485EA92EE62E0E9
:10ECB0000F94F5F140910202509103026091040219
:10ECC0007091050281E020E10F9491F2809102029F
:10ECD00090910302A0910402B091050280509F4FD1
:10ECE000AF4FBF4F8093020290930302A0930402A0
:10ECF000B093050280509041A040B04008F426CE69
:10ED0000A4CF83EB92EE62E00F94F5F140910602FE
:10ED100050910702609108027091090280E020E1A1
:10ED20000F9491F28091060290910702A09108023F
:10ED3000B091090280509F4FAF4FBF4F80930602A2
:10ED400090930702A0930802B0930902FFCD80ECD4
:10ED500092EE62E00F94F5F183E792EE60E00F949B
:10ED6000F5F18FE792EE60E00F94F5F18BE892EE0B
:10ED700060E00F94F5F189E992EE60E00F94F5F10F
:10ED800085EA92EE60E00F94F5F183EB92EE60E09D
:10ED90000F94F5F180EC92EE60E00F94F5F187ECC2
:10EDA00092EE60E00F94F5F188ED92EE60E00F9442
:10EDB000F5F18FED92EE60E00F94F5F18AEE92EEB0
:10EDC00060E00F94F5F183E093EEBDCD87EC92EE19
:10EDD00062E00F94F5F181E40F947BF282E40F94EA
:10EDE0007BF283E40F947BF284E40F947BF285E45E
:10EDF0000F947BF286E40F947BF287E40F947BF20E
:10EE000088E40F947BF28AE40F947BF28BE40F94F6
:10EE10007BF28CE40F947BF299CD88ED92EE62E068
:10EE20000F94F5F1772473948824992409C48FED05
:10EE300092EE62E00F94F5F140910A0250910B02BC
:10EE400060910C0270910D0282E020E10F9491F22A
:10EE500080910A0290910B02A0910C02B0910D02D8
:10EE600080509F4FAF4FBF4F80930A0290930B0289
:10EE7000A0930C02B0930D0269CD8AEE92EE62E08F
:10EE80000F94F5F184EE90EE60E00F94F5F18FECC5
:10EE900091EE60E00F94F5F1662477244301CC5D98
:10EEA000DE4F19821882C452D140D401C301B695F5
:10EEB000A79597958795CA5DDE4F88839983AA8326
:10EEC000BB83C652D140CC5DDE4FA881B981C4520C
:10EED000D1401196CC5DDE4FB983A883C452D14096
:10EEE000CD0162E070E00F9434F2B0E2B093C6005E
:10EEF0008091C00086FFFCCF8091C0008064809329
:10EF0000C000EDE2E093C6008091C00086FFFCCF18
:10EF10008091C00080648093C000F0E2F093C6004E
:10EF20008091C00086FFFCCF8091C00080648093F8
:10EF3000C000CA5DDE4FE880F9800A811B81C6529D
:10EF4000D140BB27A12F902F8F2D0F940DF2CA5DBA
:10EF5000DE4F8881C652D1400F940DF2B0E2FB2EF5
:10EF6000F092C6008091C00086FFFCCF8091C00067
:10EF700080648093C0000DE30093C6008091C000C0
:10EF800086FFFCCF8091C00080648093C00010E2B7
:10EF90001093C6008091C00086FFFCCF8091C00016
:10EFA00080648093C0008BBEF3012791C65DDE4F65
:10EFB0002883CA52D140A22EBB24CC24DD2408943D
:10EFC000611C711C811C911C8BBEF3018791282E42
:10EFD0003324442455240894611C711C811C911C09
:10EFE0008BBEF3013791C55DDE4F3883CB52D140E4
:10EFF0000894611C711C811C911C8BBEF30147910C
:10F00000C45DDE4F4883CC52D140ADEFEA2EAFEF66
:10F01000FA2EAFEF0A2FAFEF1A2F6E0C7F1C801E57
:10F02000911E142D032DF22CEE24EA0CFB1C0C1D5A
:10F030001D1D0F940DF220E22093C6008091C000A8
:10F0400086FFFCCF8091C00080648093C000C65DC5
:10F05000DE4F8881CA52D1400F940DF230E23093D6
:10F06000C6008091C00086FFFCCF8091C000806404
:10F070008093C000C45DDE4F8881CC52D1400F9494
:10F080000DF240E24093C6008091C00086FFFCCFA5
:10F090008091C00080648093C000C55DDE4F888190
:10F0A000CB52D1400F940DF250E25093C6008091A4
:10F0B000C00086FFFCCF8091C00080648093C000B8
:10F0C0008FEFE8168FEFF80680E0080780E018075A
:10F0D00031F484E092EE60E00F94C2F1DFC0D80119
:10F0E000C7018070907CA070B0708050904CA040A0
:10F0F000B040D1F52FEF3FE340E050E0E222F322B1
:10F1000004231523CA5DDE4FA880B980CA80DB8046
:10F11000C652D140AE0CBF1CC01ED11EAA0CBB1CD7
:10F12000CC1CDD1C8EE092EE60E00F94C2F1BB2798
:10F13000A12F902F8F2D0F940DF28E2D0F940DF285
:10F1400030E23093C6008091C00086FFFCCF8091F2
:10F15000C00080648093C0004EE34093C60080915D
:10F16000C00086FFFCCF87C08EE09EEFA0E0B0E03D
:10F17000E822F9220A231B239CE0E91694E9F90608
:10F1800090E0090790E0190709F088C0C45DDE4FE0
:10F19000A881CC52D140EA2EFF2400E010E0102FCD
:10F1A0000F2DFE2CEE24C55DDE4FB881CB52D14031
:10F1B000EB0EF11C011D111DD601C501817090706F
:10F1C000A070B070DC0199278827E80EF91E0A1F8D
:10F1D0001B1F20EF30E040E050E0A222B322C42207
:10F1E000D52241E1AA0CBB1CCC1CDD1C4A95D1F7F1
:10F1F000EA0CFB1C0C1D1D1D81E090E0A0E0B0E0BE
:10F20000282239224A225B2235E1220C331C441C7D
:10F21000551C3A95D1F7E20CF31C041D151D57013E
:10F220006801AA0CBB1CCC1CDD1C85E192EE60E0E1
:10F230000F94C2F1C801AA27BB270F940DF2BB2778
:10F24000A12F902F8F2D0F940DF28E2D0F940DF274
:10F2500090E29093C6008091C00086FFFCCF809121
:10F26000C00080648093C000AEE3A093C60080918C
:10F27000C00086FFFCCF8091C00080648093C000F6
:10F28000C601AA27BB270F940DF2BB27AD2D9C2DDD
:10F290008B2D0F940DF28A2D0F940DF20F94DCF14B
:10F2A000CC5DDE4FE881F981C452D140F99709F471
:10F2B0004DCBF4E0EF2EF12C012D112D6E0C7F1CA7
:10F2C000801E911EF2CD83E093EE62E00F94F5F183
:10F2D0008AE192EE60E00F94C2F18091C00087FF56
:10F2E000FCCF1091C6001F751093C6008091C0001E
:10F2F00086FFFCCF8091C00080648093C0000F9493
:10F30000DCF1812F81548A3108F036C1163409F4BA
:10F3100095C0173490F4133409F44EC0143430F40B
:10F320001134F1F0123409F01DC130C0143409F465
:10F3300059C0153409F016C16BC01A3409F4C4C0A1
:10F340001B3438F4173409F48FC0183409F00AC19B
:10F35000A1C01B3409F4D2C01C3409F003C1E8C0B9
:10F360008FEF81B90DC082B1809582B980E090E0C5
:10F37000E0EDF7E03197F1F70196883C9105C1F790
:10F380008091C00087FFEFCF12B8EFC08FEF84B934
:10F390000DC085B1809585B980E090E0E0EDF7E0A3
:10F3A0003197F1F70196883C9105C1F78091C00033
:10F3B00087FFEFCF15B8D9C08FEF87B90DC088B1DF
:10F3C000809588B980E090E0E0EDF7E03197F1F7C3
:10F3D0000196883C9105C1F78091C00087FFEFCF6F
:10F3E00018B8C3C08FEF8AB90DC08BB180958BB9A7
:10F3F00080E090E0E0EDF7E03197F1F70196883C8E
:10F400009105C1F78091C00087FFEFCF1BB8ADC059
:10F410008FEF8DB90DC08EB180958EB980E090E0F0
:10F42000E0EDF7E03197F1F70196883C9105C1F7DF
:10F430008091C00087FFEFCF1EB897C08FEF80BBD1
:10F440000DC081B3809581BB80E090E0E0EDF7E0F6
:10F450003197F1F70196883C9105C1F78091C00082
:10F4600087FFEFCF11BA81C08FEF83BB0DC084B38C
:10F47000809584BB80E090E0E0EDF7E03197F1F714
:10F480000196883C9105C1F78091C00087FFEFCFBE
:10F4900014BA6BC08FEF809301010FC080910201FD
:10F4A00080958093020180E090E0E0EDF7E03197F5
:10F4B000F1F70196883C9105C1F78091C00087FF64
:10F4C000EDCF1092020151C08FEF809304010FC065
:10F4D0008091050180958093050180E090E0E0ED4A
:10F4E000F7E03197F1F70196883C9105C1F78091DB
:10F4F000C00087FFEDCF1092050137C08FEF8093DA
:10F5000007010FC08091080180958093080180E079
:10F5100090E0E0EDF7E03197F1F70196883C910536
:10F52000C1F78091C00087FFEDCF109208011DC088
:10F530008FEF80930A010FC080910B01809580931B
:10F540000B0180E090E0E0EDF7E03197F1F70196F4
:10F55000883C9105C1F78091C00087FFEDCF1092E4
:10F560000B0103C085E292EEEEC98091C00087FFD7
:10F57000FCCF8091C600EAC988E392EEE4C98CE131
:10F5800091EEE1C988249924933011F1943028F444
:10F59000913089F09230B8F408C0953061F195301F
:10F5A000F0F0963009F048C043C02B3109F042C951
:10F5B00091E06BE13FC96227C15DDE4F2883CF52E6
:10F5C000D14092E037C9B22FA0E0622793E032C960
:10F5D000822F90E0A82BB92B622794E02BC92E3004
:10F5E00009F039C3622795E0C05DDE4F19821882A9
:10F5F000C053D1401FC9E1E0F0E0EC0FFD1FC05D3A
:10F60000DE4F08811981C053D140E00FF11F2083E4
:10F610000F5F1F4FC05DDE4F19830883C053D14079
:10F6200062270A171B0709F005C9D80196E002C92D
:10F63000261709F010C303C0973009F0FBC87724E0
:10F640009981933109F412C19431C8F4963009F4C8
:10F65000D8C0973050F4923009F406C1933009F4C1
:10F660006DC0913009F059C253C0913109F477C08F
:10F67000923108F0BBC0903109F04FC2F5C098310B
:10F6800009F487C0993150F4953109F4EFC09531F0
:10F6900008F4C6C1963109F040C2C2C19A3109F4DA
:10F6A0006CC09A3108F491C09B3109F45BC09D3164
:10F6B00009F033C29D81903359F48F81882311F46E
:10F6C0009EE11CC0813011F091E018C098E916C08D
:10F6D000892F807591F0903539F4E0E0F0E089E011
:10F6E0008093570094910AC0983539F4E3E0F0E034
:10F6F00089E080935700949101C090E01A821B82A8
:10F700008D818C831D829E831F8227E030E009C299
:10F710001A8288E08B8381E48C8386E58D8382E581
:10F720008E8389E48F8383E5888780E589878FE5E9
:10F730008A8782E38B872BE030E0F3C18A818139AD
:10F7400041F0823941F0803911F48FE005C080E04A
:10F7500003C082E001C08AE01A828B8344C0772410
:10F76000739482C08D81882311F48EE12CC0813086
:10F7700011F081E028C088E926C01A82E1E0F0E0BB
:10F7800089E08093570084918B831C8224E030E0D1
:10F79000C8C18B81803589F48C81883039F4E2E0EE
:10F7A000F0E089E08093570084910DC0E0E0F0E044
:10F7B00089E080935700849106C0E3E0F0E089E09F
:10F7C0008093570084911A82DFCF8D81836C99E0FA
:10F7D000E1E0F0E0082E90935700E89507B600FCB2
:10F7E000FDCF1A821B8223E030E09BC180EC8A832C
:10F7F000CE5CDE4F188219821A821B82C253D1401E
:10F800008EC18A8190E0A0E0B0E0582F44273327D2
:10F8100022278B8190E0A0E0B0E0DC0199278827C7
:10F82000282B392B4A2B5B2B8D8190E0A0E0B0E098
:10F83000282B392B4A2B5B2B8C8190E0A0E0B0E089
:10F84000BA2FA92F982F8827282B392B4A2B5B2BCF
:10F85000220F331F441F551FC05EDE4F288339839C
:10F860004A835B83C052D1401A8259C13A81C95C34
:10F87000DE4F3883C753D140CA5CDE4F1882C6536F
:10F88000D1408B81C82EDD24CA5CDE4F488159816E
:10F89000C653D140C42AD52A933109F082C0CE5C28
:10F8A000DE4F88819981AA81BB81C253D1408050AB
:10F8B000904CA340B04030F583E0CE5CDE4FE88052
:10F8C000F9800A811B81C253D140F70100935B008C
:10F8D00080935700E89507B600FCFDCFCE5CDE4F65
:10F8E000088119812A813B81C253D14000501F4FAA
:10F8F0002F4F3F4FCE5CDE4F088319832A833B8313
:10F90000C253D140C05EDE4F488159816A817B81FC
:10F91000C052D140DE011B9631E08C9111962C91A2
:10F9200011971296C75CDE4F2883C953D140C85C3B
:10F93000DE4F1882C853D14090E0C85CDE4FE881AA
:10F94000F981C853D1408E2B9F2B0C01FA01609393
:10F950005B0030935700E89511244E5F5F4F6F4F67
:10F960007F4F0EEFE02E0FEFF02ECE0CDF1CC114F8
:10F97000D10499F685E0C05EDE4F088119812A81A5
:10F980003B81C052D140F80120935B008093570027
:10F99000E89507B600FCFDCF81E180935700E8951C
:10F9A00035C0C05EDE4F88819981AA81BB81C0527B
:10F9B000D140B695A795979587957C018601ABE0D8
:10F9C000AA2EB12CAC0EBD1E0BC0D5016D915D01F0
:10F9D000C7010F947FFE0894E11CF11C01501040F8
:10F9E0000115110591F7A60160E070E0440F551F65
:10F9F000661F771FC05EDE4FE880F9800A811B8199
:10FA0000C052D1404E0D5F1D601F711F1A82C05E33
:10FA1000DE4F488359836A837B83C052D1407FC0C5
:10FA2000FA80C55CDE4FF882CB53D140C65CDE4F16
:10FA30001882CA53D1408B81C82EDD24C65CDE4FAC
:10FA400008811981CA53D140C02AD12A1A828981DA
:10FA5000BE016D5F7F4F843121F59601C05EDE4FA0
:10FA6000E880F9800A811B81C052D1400BBFF701A9
:10FA700087919691DB018C9311969C936E5F7F4FDB
:10FA8000D801C7010296A11DB11DC05EDE4F88835B
:10FA90009983AA83BB83C052D14022503040F1F6F3
:10FAA00036C0C05EDE4F288139814A815B81C052F9
:10FAB000D1400894C108D108760100E010E0089414
:10FAC000C11CD11C0894E11CF11C011D111DE20E8A
:10FAD000F31E041F151F21BDBB27A52F942F832FB5
:10FAE00082BD2F5F3F4F4F4F5F4FF89A80B5DB01CC
:10FAF0008D93BD012E153F054007510761F7C05E8C
:10FB0000DE4F288339834A835B83C052D1409601FC
:10FB10002D5F3F4FFB01108204C080EC8A8322E0FE
:10FB200030E08BE18093C6008091C00086FFFCCF5F
:10FB30008091C00080648093C000C15DDE4FF88179
:10FB4000CF52D140F093C6008091C00086FFFCCF19
:10FB50008091C00080648093C000432F3093C60022
:10FB60008091C00086FFFCCF8091C00080648093AC
:10FB7000C000922F2093C6008091C00086FFFCCF6A
:10FB80008091C00080648093C0008EE08093C600A6
:10FB90008091C00086FFFCCF8091C000806480937C
:10FBA000C00065E1C15DDE4FE880CF52D1406E25D7
:10FBB00069276427FE01319610C090819093C6009A
:10FBC0008091C00086FFFCCF31968091C000806498
:10FBD0008093C0006927215030402115310569F715
:10FBE0006093C6008091C00086FFFCCF8091C0006A
:10FBF00080648093C00085B1805885B9772081F4F6
:10FC0000C15DDE4F0881CF52D1400F5FC15DDE4F35
:10FC10000883CF52D14090E0A0E0B0E00D941AF4F8
:10FC200027982F9880E090E020ED37E0F901319798
:10FC3000F1F7019684369105C9F700008091C00064
:10FC40008D7F8093C00081E180935700E895EE2777
:10FC5000FF270994FFCF90E00D941AF497FB092E2B
:10FC600007260AD077FD04D02ED006D000201AF443
:10FC7000709561957F4F0895F6F7909581959F4F08
:10FC80000895A1E21A2EAA1BBB1BFD010DC0AA1FDD
:10FC9000BB1FEE1FFF1FA217B307E407F50720F0F5
:10FCA000A21BB30BE40BF50B661F771F881F991F70
:10FCB0001A9469F760957095809590959B01AC01B9
:10FCC000BD01CF010895AA1BBB1B51E107C0AA1FAC
:10FCD000BB1FA617B70710F0A61BB70B881F991FED
:10FCE0005A95A9F780959095BC01CD010895F99991
:10FCF000FECF92BD81BDF89A992780B50895262F31
:10FD0000F999FECF1FBA92BD81BD20BD0FB6F89400
:0EFD1000FA9AF99A0FBE01960895F894FFCF63
:040000033000E000E9
:00000001FF
